{
  "_format": "hh-sol-artifact-1",
  "contractName": "EarnV2",
  "sourceName": "contracts/earn/EarnV2.sol",
  "abi": [
    {
      "inputs": [],
      "name": "AccessControlBadConfirmation",
      "type": "error"
    },
    {
      "inputs": [
        {
          "internalType": "address",
          "name": "account",
          "type": "address"
        },
        {
          "internalType": "bytes32",
          "name": "neededRole",
          "type": "bytes32"
        }
      ],
      "name": "AccessControlUnauthorizedAccount",
      "type": "error"
    },
    {
      "inputs": [
        {
          "internalType": "address",
          "name": "target",
          "type": "address"
        }
      ],
      "name": "AddressEmptyCode",
      "type": "error"
    },
    {
      "inputs": [
        {
          "internalType": "address",
          "name": "account",
          "type": "address"
        }
      ],
      "name": "AddressInsufficientBalance",
      "type": "error"
    },
    {
      "inputs": [],
      "name": "ECDSAInvalidSignature",
      "type": "error"
    },
    {
      "inputs": [
        {
          "internalType": "uint256",
          "name": "length",
          "type": "uint256"
        }
      ],
      "name": "ECDSAInvalidSignatureLength",
      "type": "error"
    },
    {
      "inputs": [
        {
          "internalType": "bytes32",
          "name": "s",
          "type": "bytes32"
        }
      ],
      "name": "ECDSAInvalidSignatureS",
      "type": "error"
    },
    {
      "inputs": [
        {
          "internalType": "address",
          "name": "implementation",
          "type": "address"
        }
      ],
      "name": "ERC1967InvalidImplementation",
      "type": "error"
    },
    {
      "inputs": [],
      "name": "ERC1967NonPayable",
      "type": "error"
    },
    {
      "inputs": [],
      "name": "EnforcedPause",
      "type": "error"
    },
    {
      "inputs": [],
      "name": "ExpectedPause",
      "type": "error"
    },
    {
      "inputs": [],
      "name": "FailedInnerCall",
      "type": "error"
    },
    {
      "inputs": [],
      "name": "InvalidInitialization",
      "type": "error"
    },
    {
      "inputs": [],
      "name": "NotInitializing",
      "type": "error"
    },
    {
      "inputs": [
        {
          "internalType": "address",
          "name": "token",
          "type": "address"
        }
      ],
      "name": "SafeERC20FailedOperation",
      "type": "error"
    },
    {
      "inputs": [],
      "name": "UUPSUnauthorizedCallContext",
      "type": "error"
    },
    {
      "inputs": [
        {
          "internalType": "bytes32",
          "name": "slot",
          "type": "bytes32"
        }
      ],
      "name": "UUPSUnsupportedProxiableUUID",
      "type": "error"
    },
    {
      "anonymous": false,
      "inputs": [
        {
          "indexed": true,
          "internalType": "address",
          "name": "user",
          "type": "address"
        },
        {
          "indexed": true,
          "internalType": "uint256",
          "name": "amountClaimed",
          "type": "uint256"
        },
        {
          "indexed": true,
          "internalType": "uint256",
          "name": "fee",
          "type": "uint256"
        }
      ],
      "name": "Claim",
      "type": "event"
    },
    {
      "anonymous": false,
      "inputs": [
        {
          "indexed": true,
          "internalType": "address",
          "name": "user",
          "type": "address"
        },
        {
          "indexed": true,
          "internalType": "uint256",
          "name": "amount",
          "type": "uint256"
        }
      ],
      "name": "Deposit",
      "type": "event"
    },
    {
      "anonymous": false,
      "inputs": [],
      "name": "EIP712DomainChanged",
      "type": "event"
    },
    {
      "anonymous": false,
      "inputs": [
        {
          "indexed": false,
          "internalType": "uint64",
          "name": "version",
          "type": "uint64"
        }
      ],
      "name": "Initialized",
      "type": "event"
    },
    {
      "anonymous": false,
      "inputs": [
        {
          "indexed": false,
          "internalType": "address",
          "name": "account",
          "type": "address"
        }
      ],
      "name": "Paused",
      "type": "event"
    },
    {
      "anonymous": false,
      "inputs": [
        {
          "indexed": true,
          "internalType": "bytes32",
          "name": "role",
          "type": "bytes32"
        },
        {
          "indexed": true,
          "internalType": "bytes32",
          "name": "previousAdminRole",
          "type": "bytes32"
        },
        {
          "indexed": true,
          "internalType": "bytes32",
          "name": "newAdminRole",
          "type": "bytes32"
        }
      ],
      "name": "RoleAdminChanged",
      "type": "event"
    },
    {
      "anonymous": false,
      "inputs": [
        {
          "indexed": true,
          "internalType": "bytes32",
          "name": "role",
          "type": "bytes32"
        },
        {
          "indexed": true,
          "internalType": "address",
          "name": "account",
          "type": "address"
        },
        {
          "indexed": true,
          "internalType": "address",
          "name": "sender",
          "type": "address"
        }
      ],
      "name": "RoleGranted",
      "type": "event"
    },
    {
      "anonymous": false,
      "inputs": [
        {
          "indexed": true,
          "internalType": "bytes32",
          "name": "role",
          "type": "bytes32"
        },
        {
          "indexed": true,
          "internalType": "address",
          "name": "account",
          "type": "address"
        },
        {
          "indexed": true,
          "internalType": "address",
          "name": "sender",
          "type": "address"
        }
      ],
      "name": "RoleRevoked",
      "type": "event"
    },
    {
      "anonymous": false,
      "inputs": [
        {
          "indexed": false,
          "internalType": "address",
          "name": "account",
          "type": "address"
        }
      ],
      "name": "Unpaused",
      "type": "event"
    },
    {
      "anonymous": false,
      "inputs": [
        {
          "indexed": true,
          "internalType": "uint256",
          "name": "claimFlatFee",
          "type": "uint256"
        }
      ],
      "name": "UpdateClaimFlatFee",
      "type": "event"
    },
    {
      "anonymous": false,
      "inputs": [
        {
          "indexed": true,
          "internalType": "uint256",
          "name": "claimPercentageFeeBps",
          "type": "uint256"
        }
      ],
      "name": "UpdateClaimPercentageFeeBps",
      "type": "event"
    },
    {
      "anonymous": false,
      "inputs": [
        {
          "indexed": true,
          "internalType": "uint256",
          "name": "minimumDeposit",
          "type": "uint256"
        }
      ],
      "name": "UpdateMinimumDeposit",
      "type": "event"
    },
    {
      "anonymous": false,
      "inputs": [
        {
          "indexed": true,
          "internalType": "address",
          "name": "walletFeeReceiver",
          "type": "address"
        }
      ],
      "name": "UpdateWalletFeeReceiver",
      "type": "event"
    },
    {
      "anonymous": false,
      "inputs": [
        {
          "indexed": true,
          "internalType": "address",
          "name": "implementation",
          "type": "address"
        }
      ],
      "name": "Upgraded",
      "type": "event"
    },
    {
      "anonymous": false,
      "inputs": [
        {
          "indexed": true,
          "internalType": "address",
          "name": "user",
          "type": "address"
        }
      ],
      "name": "WhitelistAdd",
      "type": "event"
    },
    {
      "anonymous": false,
      "inputs": [
        {
          "indexed": true,
          "internalType": "address",
          "name": "user",
          "type": "address"
        }
      ],
      "name": "WhitelistRemove",
      "type": "event"
    },
    {
      "anonymous": false,
      "inputs": [
        {
          "indexed": true,
          "internalType": "address",
          "name": "user",
          "type": "address"
        },
        {
          "indexed": true,
          "internalType": "uint256",
          "name": "amount",
          "type": "uint256"
        }
      ],
      "name": "Withdraw",
      "type": "event"
    },
    {
      "inputs": [],
      "name": "DEFAULT_ADMIN_ROLE",
      "outputs": [
        {
          "internalType": "bytes32",
          "name": "",
          "type": "bytes32"
        }
      ],
      "stateMutability": "view",
      "type": "function"
    },
    {
      "inputs": [],
      "name": "OPERATOR_ROLE",
      "outputs": [
        {
          "internalType": "bytes32",
          "name": "",
          "type": "bytes32"
        }
      ],
      "stateMutability": "view",
      "type": "function"
    },
    {
      "inputs": [],
      "name": "PAUSER_ROLE",
      "outputs": [
        {
          "internalType": "bytes32",
          "name": "",
          "type": "bytes32"
        }
      ],
      "stateMutability": "view",
      "type": "function"
    },
    {
      "inputs": [],
      "name": "UPGRADE_INTERFACE_VERSION",
      "outputs": [
        {
          "internalType": "string",
          "name": "",
          "type": "string"
        }
      ],
      "stateMutability": "view",
      "type": "function"
    },
    {
      "inputs": [],
      "name": "assetToken",
      "outputs": [
        {
          "internalType": "contract IERC20",
          "name": "",
          "type": "address"
        }
      ],
      "stateMutability": "view",
      "type": "function"
    },
    {
      "inputs": [
        {
          "internalType": "uint256",
          "name": "claimAmount",
          "type": "uint256"
        }
      ],
      "name": "calculateFees",
      "outputs": [
        {
          "internalType": "uint256",
          "name": "totalFees",
          "type": "uint256"
        }
      ],
      "stateMutability": "view",
      "type": "function"
    },
    {
      "inputs": [
        {
          "internalType": "uint256",
          "name": "amount",
          "type": "uint256"
        },
        {
          "internalType": "uint256",
          "name": "bps",
          "type": "uint256"
        }
      ],
      "name": "calculatePercentage",
      "outputs": [
        {
          "internalType": "uint256",
          "name": "",
          "type": "uint256"
        }
      ],
      "stateMutability": "pure",
      "type": "function"
    },
    {
      "inputs": [],
      "name": "claim",
      "outputs": [
        {
          "internalType": "uint256",
          "name": "assets",
          "type": "uint256"
        }
      ],
      "stateMutability": "nonpayable",
      "type": "function"
    },
    {
      "inputs": [],
      "name": "claimFlatFee",
      "outputs": [
        {
          "internalType": "uint256",
          "name": "",
          "type": "uint256"
        }
      ],
      "stateMutability": "view",
      "type": "function"
    },
    {
      "inputs": [],
      "name": "claimPercentageFeeBps",
      "outputs": [
        {
          "internalType": "uint256",
          "name": "",
          "type": "uint256"
        }
      ],
      "stateMutability": "view",
      "type": "function"
    },
    {
      "inputs": [
        {
          "internalType": "uint256",
          "name": "amount",
          "type": "uint256"
        }
      ],
      "name": "deposit",
      "outputs": [],
      "stateMutability": "nonpayable",
      "type": "function"
    },
    {
      "inputs": [],
      "name": "eip712Domain",
      "outputs": [
        {
          "internalType": "bytes1",
          "name": "fields",
          "type": "bytes1"
        },
        {
          "internalType": "string",
          "name": "name",
          "type": "string"
        },
        {
          "internalType": "string",
          "name": "version",
          "type": "string"
        },
        {
          "internalType": "uint256",
          "name": "chainId",
          "type": "uint256"
        },
        {
          "internalType": "address",
          "name": "verifyingContract",
          "type": "address"
        },
        {
          "internalType": "bytes32",
          "name": "salt",
          "type": "bytes32"
        },
        {
          "internalType": "uint256[]",
          "name": "extensions",
          "type": "uint256[]"
        }
      ],
      "stateMutability": "view",
      "type": "function"
    },
    {
      "inputs": [
        {
          "internalType": "bytes32",
          "name": "role",
          "type": "bytes32"
        }
      ],
      "name": "getRoleAdmin",
      "outputs": [
        {
          "internalType": "bytes32",
          "name": "",
          "type": "bytes32"
        }
      ],
      "stateMutability": "view",
      "type": "function"
    },
    {
      "inputs": [
        {
          "internalType": "bytes32",
          "name": "role",
          "type": "bytes32"
        },
        {
          "internalType": "address",
          "name": "account",
          "type": "address"
        }
      ],
      "name": "grantRole",
      "outputs": [],
      "stateMutability": "nonpayable",
      "type": "function"
    },
    {
      "inputs": [
        {
          "internalType": "bytes32",
          "name": "role",
          "type": "bytes32"
        },
        {
          "internalType": "address",
          "name": "account",
          "type": "address"
        }
      ],
      "name": "hasRole",
      "outputs": [
        {
          "internalType": "bool",
          "name": "",
          "type": "bool"
        }
      ],
      "stateMutability": "view",
      "type": "function"
    },
    {
      "inputs": [
        {
          "internalType": "address",
          "name": "_assetToken",
          "type": "address"
        },
        {
          "internalType": "address",
          "name": "_vaultToken",
          "type": "address"
        },
        {
          "internalType": "address",
          "name": "_poolFlexi",
          "type": "address"
        },
        {
          "internalType": "address",
          "name": "_walletFeeReceiver",
          "type": "address"
        }
      ],
      "name": "initialize",
      "outputs": [],
      "stateMutability": "nonpayable",
      "type": "function"
    },
    {
      "inputs": [],
      "name": "minimumDeposit",
      "outputs": [
        {
          "internalType": "uint256",
          "name": "",
          "type": "uint256"
        }
      ],
      "stateMutability": "view",
      "type": "function"
    },
    {
      "inputs": [
        {
          "internalType": "address",
          "name": "",
          "type": "address"
        }
      ],
      "name": "nonces",
      "outputs": [
        {
          "internalType": "uint256",
          "name": "",
          "type": "uint256"
        }
      ],
      "stateMutability": "view",
      "type": "function"
    },
    {
      "inputs": [],
      "name": "pause",
      "outputs": [],
      "stateMutability": "nonpayable",
      "type": "function"
    },
    {
      "inputs": [],
      "name": "paused",
      "outputs": [
        {
          "internalType": "bool",
          "name": "",
          "type": "bool"
        }
      ],
      "stateMutability": "view",
      "type": "function"
    },
    {
      "inputs": [],
      "name": "poolFlexi",
      "outputs": [
        {
          "internalType": "contract IPoolFlexi",
          "name": "",
          "type": "address"
        }
      ],
      "stateMutability": "view",
      "type": "function"
    },
    {
      "inputs": [],
      "name": "proxiableUUID",
      "outputs": [
        {
          "internalType": "bytes32",
          "name": "",
          "type": "bytes32"
        }
      ],
      "stateMutability": "view",
      "type": "function"
    },
    {
      "inputs": [
        {
          "internalType": "address",
          "name": "user",
          "type": "address"
        }
      ],
      "name": "removeWhitelistedUser",
      "outputs": [],
      "stateMutability": "nonpayable",
      "type": "function"
    },
    {
      "inputs": [
        {
          "internalType": "bytes32",
          "name": "role",
          "type": "bytes32"
        },
        {
          "internalType": "address",
          "name": "callerConfirmation",
          "type": "address"
        }
      ],
      "name": "renounceRole",
      "outputs": [],
      "stateMutability": "nonpayable",
      "type": "function"
    },
    {
      "inputs": [
        {
          "internalType": "contract IERC20",
          "name": "token",
          "type": "address"
        },
        {
          "internalType": "address",
          "name": "receiver",
          "type": "address"
        }
      ],
      "name": "rescueErc20Tokens",
      "outputs": [],
      "stateMutability": "nonpayable",
      "type": "function"
    },
    {
      "inputs": [
        {
          "internalType": "bytes32",
          "name": "role",
          "type": "bytes32"
        },
        {
          "internalType": "address",
          "name": "account",
          "type": "address"
        }
      ],
      "name": "revokeRole",
      "outputs": [],
      "stateMutability": "nonpayable",
      "type": "function"
    },
    {
      "inputs": [
        {
          "internalType": "bytes4",
          "name": "interfaceId",
          "type": "bytes4"
        }
      ],
      "name": "supportsInterface",
      "outputs": [
        {
          "internalType": "bool",
          "name": "",
          "type": "bool"
        }
      ],
      "stateMutability": "view",
      "type": "function"
    },
    {
      "inputs": [],
      "name": "unpause",
      "outputs": [],
      "stateMutability": "nonpayable",
      "type": "function"
    },
    {
      "inputs": [
        {
          "internalType": "uint256",
          "name": "_claimFlatFee",
          "type": "uint256"
        }
      ],
      "name": "updateClaimFlatFee",
      "outputs": [],
      "stateMutability": "nonpayable",
      "type": "function"
    },
    {
      "inputs": [
        {
          "internalType": "uint256",
          "name": "_claimPercentageFeeBps",
          "type": "uint256"
        }
      ],
      "name": "updateClaimPercentageFeeBps",
      "outputs": [],
      "stateMutability": "nonpayable",
      "type": "function"
    },
    {
      "inputs": [
        {
          "internalType": "uint256",
          "name": "_minimumDeposit",
          "type": "uint256"
        }
      ],
      "name": "updateMinimumDeposit",
      "outputs": [],
      "stateMutability": "nonpayable",
      "type": "function"
    },
    {
      "inputs": [
        {
          "internalType": "address",
          "name": "_walletFeeReceiver",
          "type": "address"
        }
      ],
      "name": "updateWalletFeeReceiver",
      "outputs": [],
      "stateMutability": "nonpayable",
      "type": "function"
    },
    {
      "inputs": [
        {
          "internalType": "address",
          "name": "newImplementation",
          "type": "address"
        },
        {
          "internalType": "bytes",
          "name": "data",
          "type": "bytes"
        }
      ],
      "name": "upgradeToAndCall",
      "outputs": [],
      "stateMutability": "payable",
      "type": "function"
    },
    {
      "inputs": [
        {
          "internalType": "address",
          "name": "",
          "type": "address"
        }
      ],
      "name": "userAssetBalances",
      "outputs": [
        {
          "internalType": "uint256",
          "name": "",
          "type": "uint256"
        }
      ],
      "stateMutability": "view",
      "type": "function"
    },
    {
      "inputs": [
        {
          "internalType": "address",
          "name": "",
          "type": "address"
        }
      ],
      "name": "userVaultTokenBalances",
      "outputs": [
        {
          "internalType": "uint256",
          "name": "",
          "type": "uint256"
        }
      ],
      "stateMutability": "view",
      "type": "function"
    },
    {
      "inputs": [],
      "name": "vaultToken",
      "outputs": [
        {
          "internalType": "contract IERC20",
          "name": "",
          "type": "address"
        }
      ],
      "stateMutability": "view",
      "type": "function"
    },
    {
      "inputs": [
        {
          "internalType": "address",
          "name": "user",
          "type": "address"
        },
        {
          "internalType": "uint256",
          "name": "nonce",
          "type": "uint256"
        },
        {
          "internalType": "uint8",
          "name": "v",
          "type": "uint8"
        },
        {
          "internalType": "bytes32",
          "name": "r",
          "type": "bytes32"
        },
        {
          "internalType": "bytes32",
          "name": "s",
          "type": "bytes32"
        }
      ],
      "name": "verifyWhitelistSignature",
      "outputs": [
        {
          "internalType": "bool",
          "name": "",
          "type": "bool"
        }
      ],
      "stateMutability": "view",
      "type": "function"
    },
    {
      "inputs": [],
      "name": "walletFeeReceiver",
      "outputs": [
        {
          "internalType": "address",
          "name": "",
          "type": "address"
        }
      ],
      "stateMutability": "view",
      "type": "function"
    },
    {
      "inputs": [
        {
          "internalType": "address",
          "name": "user",
          "type": "address"
        }
      ],
      "name": "whitelistUser",
      "outputs": [],
      "stateMutability": "nonpayable",
      "type": "function"
    },
    {
      "inputs": [
        {
          "internalType": "uint256",
          "name": "nonce",
          "type": "uint256"
        },
        {
          "internalType": "uint8",
          "name": "v",
          "type": "uint8"
        },
        {
          "internalType": "bytes32",
          "name": "r",
          "type": "bytes32"
        },
        {
          "internalType": "bytes32",
          "name": "s",
          "type": "bytes32"
        }
      ],
      "name": "whitelistUser",
      "outputs": [],
      "stateMutability": "nonpayable",
      "type": "function"
    },
    {
      "inputs": [
        {
          "internalType": "address",
          "name": "",
          "type": "address"
        }
      ],
      "name": "whitelistedUserAddress",
      "outputs": [
        {
          "internalType": "bool",
          "name": "",
          "type": "bool"
        }
      ],
      "stateMutability": "view",
      "type": "function"
    },
    {
      "inputs": [
        {
          "internalType": "uint256",
          "name": "amount",
          "type": "uint256"
        }
      ],
      "name": "withdrawalRequest",
      "outputs": [
        {
          "internalType": "uint256",
          "name": "assets",
          "type": "uint256"
        }
      ],
      "stateMutability": "nonpayable",
      "type": "function"
    }
  ],
  "bytecode": "0x60a06040523060805234801561001457600080fd5b50608051612d0461003e6000396000818161196a015281816119930152611b610152612d046000f3fe6080604052600436106102515760003560e01c8063847e5c5611610139578063b7b1b8e9116100b6578063ebaa8a6c1161007a578063ebaa8a6c1461071a578063f5b541a61461073a578063f60b5ef01461075c578063f8c8765e1461077c578063fa97e8641461079c578063ffeacb99146107c957600080fd5b8063b7b1b8e914610670578063bbcc21cb14610690578063d3432dd3146106b0578063d547741f146106c6578063e63ab1e9146106e657600080fd5b8063a217fddf116100fd578063a217fddf146105bd578063a9a78f47146105d2578063ad3cb1cc146105f2578063b005f67e14610630578063b6b55f251461065057600080fd5b8063847e5c561461050f57806384b0196e1461053f5780638c8e710c1461056757806391d14854146105875780639f856568146105a757600080fd5b80635209cb98116101d2578063703bafd511610196578063703bafd514610440578063722c2ce81461046057806377779bee1461048d5780637ecebe00146104ad5780637fb06b3c146104da5780638456cb59146104fa57600080fd5b80635209cb98146103b057806352238fdd146103d057806352d1902d146103f05780635c975abb14610405578063636bfbab1461042a57600080fd5b806336568abe1161021957806336568abe146103335780633f4ba83a146103535780634a4c560d146103685780634e71d92d146103885780634f1ef2861461039d57600080fd5b806301ffc9a7146102565780631083f7611461028b5780632133e3b9146102c3578063248a9ca3146102f15780632f2ff15d14610311575b600080fd5b34801561026257600080fd5b506102766102713660046125d9565b6107e9565b60405190151581526020015b60405180910390f35b34801561029757600080fd5b506001546102ab906001600160a01b031681565b6040516001600160a01b039091168152602001610282565b3480156102cf57600080fd5b506102e36102de366004612603565b610820565b604051908152602001610282565b3480156102fd57600080fd5b506102e361030c366004612625565b610840565b34801561031d57600080fd5b5061033161032c366004612653565b610862565b005b34801561033f57600080fd5b5061033161034e366004612653565b610884565b34801561035f57600080fd5b506103316108bc565b34801561037457600080fd5b50610331610383366004612683565b6108d2565b34801561039457600080fd5b506102e36109a0565b6103316103ab3660046126b6565b610abf565b3480156103bc57600080fd5b506102e36103cb366004612625565b610ade565b3480156103dc57600080fd5b506102e36103eb366004612625565b610c95565b3480156103fc57600080fd5b506102e3610cb4565b34801561041157600080fd5b50600080516020612caf8339815191525460ff16610276565b34801561043657600080fd5b506102e3600a5481565b34801561044c57600080fd5b506002546102ab906001600160a01b031681565b34801561046c57600080fd5b506102e361047b366004612683565b60066020526000908152604090205481565b34801561049957600080fd5b506103316104a8366004612683565b610cd1565b3480156104b957600080fd5b506102e36104c8366004612683565b60046020526000908152604090205481565b3480156104e657600080fd5b506103316104f536600461278b565b610d27565b34801561050657600080fd5b50610331610eae565b34801561051b57600080fd5b5061027661052a366004612683565b60036020526000908152604090205460ff1681565b34801561054b57600080fd5b50610554610ee0565b6040516102829796959493929190612816565b34801561057357600080fd5b506102766105823660046128af565b610f8c565b34801561059357600080fd5b506102766105a2366004612653565b610fcf565b3480156105b357600080fd5b506102e360075481565b3480156105c957600080fd5b506102e3600081565b3480156105de57600080fd5b506103316105ed366004612625565b611007565b3480156105fe57600080fd5b50610623604051806040016040528060058152602001640352e302e360dc1b81525081565b60405161028291906128ff565b34801561063c57600080fd5b5061033161064b366004612625565b611046565b34801561065c57600080fd5b5061033161066b366004612625565b611085565b34801561067c57600080fd5b5061033161068b366004612683565b6112f4565b34801561069c57600080fd5b506103316106ab366004612912565b6113a8565b3480156106bc57600080fd5b506102e360085481565b3480156106d257600080fd5b506103316106e1366004612653565b6114dd565b3480156106f257600080fd5b506102e37f65d7a28e3265b37a6474929f336521b332c1681b933f6cb9f3376673440d862a81565b34801561072657600080fd5b506009546102ab906001600160a01b031681565b34801561074657600080fd5b506102e3600080516020612c6f83398151915281565b34801561076857600080fd5b506000546102ab906001600160a01b031681565b34801561078857600080fd5b50610331610797366004612940565b6114f9565b3480156107a857600080fd5b506102e36107b7366004612683565b60056020526000908152604090205481565b3480156107d557600080fd5b506103316107e4366004612625565b6116b8565b60006001600160e01b03198216637965db0b60e01b148061081a57506301ffc9a760e01b6001600160e01b03198316145b92915050565b600061271061082f83856129b2565b61083991906129c9565b9392505050565b6000908152600080516020612c8f833981519152602052604090206001015490565b61086b82610840565b61087481611742565b61087e838361174c565b50505050565b6001600160a01b03811633146108ad5760405163334bd91960e11b815260040160405180910390fd5b6108b782826117f1565b505050565b60006108c781611742565b6108cf61186d565b50565b600080516020612c6f8339815191526108ea81611742565b6001600160a01b03821660009081526003602052604090205460ff16156109535760405162461bcd60e51b8152602060048201526018602482015277155cd95c88185b1c9958591e481dda1a5d195b1a5cdd195960421b60448201526064015b60405180910390fd5b6001600160a01b038216600081815260036020526040808220805460ff19166001179055517f4a92e3fad22046b744a1d74eeacc4fd529bfd154dc3ff26d90203e692fd751469190a25050565b60006109aa6118cd565b3360009081526003602052604090205460ff166109d95760405162461bcd60e51b815260040161094a906129eb565b3360009081526005602052604090205480610a295760405162461bcd60e51b815260206004820152601060248201526f4e6f7468696e6720746f20636c61696d60801b604482015260640161094a565b6000610a3482610c95565b90506000610a428284612a14565b33600090815260056020526040812055600154600954919250610a72916001600160a01b03918216911684611900565b600154610a89906001600160a01b03163383611900565b6040518290829033907f34fcbac0073d7c3d388e51312faf357774904998eeb8fca628b9e6f65ee1cbf790600090a49250505090565b610ac761195f565b610ad082611a04565b610ada8282611a0f565b5050565b6000610ae86118cd565b3360009081526003602052604090205460ff16610b175760405162461bcd60e51b815260040161094a906129eb565b33600090815260066020526040902054821115610b865760405162461bcd60e51b815260206004820152602760248201527f5769746864726177616c2052657175657374206578636565647320796f75722060448201526662616c616e636560c81b606482015260840161094a565b3360009081526006602052604081208054849290610ba5908490612a14565b9091555050600254600054610bc7916001600160a01b03908116911684611acc565b6000805460405163aa2f892d60e01b8152600481018590526001600160a01b039091169063aa2f892d906024016020604051808303816000875af1158015610c13573d6000803e3d6000fd5b505050506040513d601f19601f82011682018060405250810190610c379190612a27565b33600090815260056020526040812080549293508392909190610c5b908490612a40565b9091555050604051839033907f884edad9ce6fa2440d8a54cc123490eb96d2768479d49ff9c7366125a942436490600090a390505b919050565b600080610ca483600854610820565b9050806007546108399190612a40565b6000610cbe611b56565b50600080516020612c4f83398151915290565b6000610cdc81611742565b600980546001600160a01b0319166001600160a01b0384169081179091556040517f0c03480b4909f1ff78b6a9a00221dbc91636afd583033dce847e3c8d4df28e7d90600090a25050565b3360009081526003602052604090205460ff1615610d825760405162461bcd60e51b8152602060048201526018602482015277155cd95c88185b1c9958591e481dda1a5d195b1a5cdd195960421b604482015260640161094a565b336000908152600460205260409020548414610dd05760405162461bcd60e51b815260206004820152600d60248201526c496e76616c6964206e6f6e636560981b604482015260640161094a565b610ddd3385858585610f8c565b610e1d5760405162461bcd60e51b8152602060048201526011602482015270496e76616c6964207369676e617475726560781b604482015260640161094a565b336000908152600460205260408120805491610e3883612a53565b9190505550600160036000610e4a3390565b6001600160a01b031681526020810191909152604001600020805460ff1916911515919091179055336001600160a01b03167f4a92e3fad22046b744a1d74eeacc4fd529bfd154dc3ff26d90203e692fd7514660405160405180910390a250505050565b7f65d7a28e3265b37a6474929f336521b332c1681b933f6cb9f3376673440d862a610ed881611742565b6108cf611b9f565b60006060808280808381600080516020612c2f8339815191528054909150158015610f0d57506001810154155b610f515760405162461bcd60e51b81526020600482015260156024820152741152540dcc4c8e88155b9a5b9a5d1a585b1a5e9959605a1b604482015260640161094a565b610f59611be8565b610f61611cab565b60408051600080825260208201909252600f60f81b9c939b5091995046985030975095509350915050565b600080610f998787611cea565b90506000610fa982878787611d51565b9050610fc3600080516020612c6f83398151915282610fcf565b98975050505050505050565b6000918252600080516020612c8f833981519152602090815260408084206001600160a01b0393909316845291905290205460ff1690565b600061101281611742565b600782905560405182907fd76003c1299d9a87f8812ccc0447a3c1d8531bceb8008441619db45e29feaf1590600090a25050565b600061105181611742565b600a82905560405182907fdbc54dd394758e3cb4264892e615d72784816f9dedad40ecc08735501450874690600090a25050565b61108d6118cd565b3360009081526003602052604090205460ff166110bc5760405162461bcd60e51b815260040161094a906129eb565b60015481906001600160a01b031663dd62ed3e336040516001600160e01b031960e084901b1681526001600160a01b039091166004820152306024820152604401602060405180830381865afa15801561111a573d6000803e3d6000fd5b505050506040513d601f19601f8201168201806040525081019061113e9190612a27565b101561118c5760405162461bcd60e51b815260206004820152601a60248201527f4561726e3a204e4f545f454e4f5547485f414c4c4f57414e4345000000000000604482015260640161094a565b600a548110156111ef5760405162461bcd60e51b815260206004820152602860248201527f416d6f756e7420646f6573206e6f74206d65657420746865206d696e696d756d6044820152670819195c1bdcda5d60c21b606482015260840161094a565b600154611207906001600160a01b0316333084611d7f565b600154600054611224916001600160a01b03908116911683611acc565b60008054604051636e553f6560e01b8152600481018490523060248201526001600160a01b0390911690636e553f659060440160408051808303816000875af1158015611275573d6000803e3d6000fd5b505050506040513d601f19601f820116820180604052508101906112999190612a6c565b50336000908152600660205260408120805492935083929091906112be908490612a40565b9091555050604051829033907fe1fffcc4923d04b559f4d29a8bfc6cda04eb5b0d3c460751c2402c5c5cc9109c90600090a35050565b60006112ff81611742565b6001600160a01b03821660009081526003602052604090205460ff1661135e5760405162461bcd60e51b8152602060048201526014602482015273155cd95c881b9bdd081dda1a5d195b1a5cdd195960621b604482015260640161094a565b6001600160a01b038216600081815260036020526040808220805460ff19169055517fc02124c68d1738bfb74eeba2c844061a3374d1e6f912c3c845c6c8aef67e64909190a25050565b60006113b381611742565b6040516370a0823160e01b81523060048201526000906001600160a01b038516906370a0823190602401602060405180830381865afa1580156113fa573d6000803e3d6000fd5b505050506040513d601f19601f8201168201806040525081019061141e9190612a27565b9050600081116114685760405162461bcd60e51b81526020600482015260156024820152744e6f20746f6b656e7320746f20776974686472617760581b604482015260640161094a565b6040516370a0823160e01b815230600482015261087e90859085906001600160a01b038316906370a0823190602401602060405180830381865afa1580156114b4573d6000803e3d6000fd5b505050506040513d601f19601f820116820180604052508101906114d89190612a27565b611900565b6114e682610840565b6114ef81611742565b61087e83836117f1565b7ff0c57e16840df040f15088dc2f81fe391c3923bec73e23a9662efc9c229c6a008054600160401b810460ff16159067ffffffffffffffff1660008115801561153f5750825b905060008267ffffffffffffffff16600114801561155c5750303b155b90508115801561156a575080155b156115885760405163f92ee8a960e01b815260040160405180910390fd5b845467ffffffffffffffff1916600117855583156115b257845460ff60401b1916600160401b1785555b6115bd60003361174c565b506115d6600080516020612c6f8339815191523361174c565b506116166040518060400160405280600481526020016322b0b93760e11b815250604051806040016040528060018152602001603160f81b815250611db8565b600180546001600160a01b03808c166001600160a01b031992831617909255600280548b8416908316179055600080548a84169083161790556009805492891692909116919091179055620f4240600a5583156116ad57845460ff60401b19168555604051600181527fc7f505b2f371ae2175ee4913f4499e1f2633a7b5936321eed1cdaeb6115181d29060200160405180910390a15b505050505050505050565b60006116c381611742565b61271082111561170e5760405162461bcd60e51b81526020600482015260166024820152754665652063616e6e6f7420657863656564203130302560501b604482015260640161094a565b600882905560405182907f9d1b755403f21a8bb213926fd00686b446481c4fe8dedcef1c69e400f483ccdd90600090a25050565b6108cf8133611dca565b6000600080516020612c8f8339815191526117678484610fcf565b6117e7576000848152602082815260408083206001600160a01b03871684529091529020805460ff1916600117905561179d3390565b6001600160a01b0316836001600160a01b0316857f2f8788117e7eff1d82e926ec794901d17c78024a50270940304540a733656f0d60405160405180910390a4600191505061081a565b600091505061081a565b6000600080516020612c8f83398151915261180c8484610fcf565b156117e7576000848152602082815260408083206001600160a01b0387168085529252808320805460ff1916905551339287917ff6391f5c32d9c69d2a47ea670b442974b53935d1edc7fd64eb21e047a839171b9190a4600191505061081a565b611875611e03565b600080516020612caf833981519152805460ff191681557f5db9ee0a495bf2e6ff9c91a7834c1ba4fdd244a5e8aa4e537bd38aeae4b073aa335b6040516001600160a01b03909116815260200160405180910390a150565b600080516020612caf8339815191525460ff16156118fe5760405163d93c066560e01b815260040160405180910390fd5b565b6040516001600160a01b038381166024830152604482018390526108b791859182169063a9059cbb906064015b604051602081830303815290604052915060e01b6020820180516001600160e01b038381831617835250505050611e33565b306001600160a01b037f00000000000000000000000000000000000000000000000000000000000000001614806119e657507f00000000000000000000000000000000000000000000000000000000000000006001600160a01b03166119da600080516020612c4f833981519152546001600160a01b031690565b6001600160a01b031614155b156118fe5760405163703e46dd60e11b815260040160405180910390fd5b6000610ada81611742565b816001600160a01b03166352d1902d6040518163ffffffff1660e01b8152600401602060405180830381865afa925050508015611a69575060408051601f3d908101601f19168201909252611a6691810190612a27565b60015b611a9157604051634c9c8ce360e01b81526001600160a01b038316600482015260240161094a565b600080516020612c4f8339815191528114611ac257604051632a87526960e21b81526004810182905260240161094a565b6108b78383611e96565b604051636eb1769f60e11b81523060048201526001600160a01b0383811660248301526000919085169063dd62ed3e90604401602060405180830381865afa158015611b1c573d6000803e3d6000fd5b505050506040513d601f19601f82011682018060405250810190611b409190612a27565b905061087e8484611b518585612a40565b611eec565b306001600160a01b037f000000000000000000000000000000000000000000000000000000000000000016146118fe5760405163703e46dd60e11b815260040160405180910390fd5b611ba76118cd565b600080516020612caf833981519152805460ff191660011781557f62e78cea01bee320cd4e420270b5ea74000d11b0c9f74754ebdbfc544b05a258336118af565b7fa16a46d94261c7517cc8ff89f61c0ce93598e3c849801011dee649a6a557d1028054606091600080516020612c2f83398151915291611c2790612a90565b80601f0160208091040260200160405190810160405280929190818152602001828054611c5390612a90565b8015611ca05780601f10611c7557610100808354040283529160200191611ca0565b820191906000526020600020905b815481529060010190602001808311611c8357829003601f168201915b505050505091505090565b7fa16a46d94261c7517cc8ff89f61c0ce93598e3c849801011dee649a6a557d1038054606091600080516020612c2f83398151915291611c2790612a90565b604080517fc472d2d5873b5bbb38fe86bfa559f8e4d5f61875e74db7ba717876b4e3032e0e60208201526001600160a01b03841691810191909152606081018290526000906108399060800160405160208183030381529060405280519060200120611f7c565b600080600080611d6388888888611fa9565b925092509250611d738282612078565b50909695505050505050565b6040516001600160a01b03848116602483015283811660448301526064820183905261087e9186918216906323b872dd9060840161192d565b611dc0612131565b610ada828261217a565b611dd48282610fcf565b610ada5760405163e2517d3f60e01b81526001600160a01b03821660048201526024810183905260440161094a565b600080516020612caf8339815191525460ff166118fe57604051638dfc202b60e01b815260040160405180910390fd5b6000611e486001600160a01b038416836121db565b90508051600014158015611e6d575080806020019051810190611e6b9190612aca565b155b156108b757604051635274afe760e01b81526001600160a01b038416600482015260240161094a565b611e9f826121e9565b6040516001600160a01b038316907fbc7cd75a20ee27fd9adebab32041f755214dbc6bffa90cc0225b39da2e5c2d3b90600090a2805115611ee4576108b7828261224e565b610ada6122c4565b604080516001600160a01b038416602482015260448082018490528251808303909101815260649091019091526020810180516001600160e01b031663095ea7b360e01b179052611f3d84826122e3565b61087e576040516001600160a01b03848116602483015260006044830152611f7291869182169063095ea7b39060640161192d565b61087e8482611e33565b600061081a611f89612386565b8360405161190160f01b8152600281019290925260228201526042902090565b600080807f7fffffffffffffffffffffffffffffff5d576e7357a4501ddfe92f46681b20a0841115611fe4575060009150600390508261206e565b604080516000808252602082018084528a905260ff891692820192909252606081018790526080810186905260019060a0016020604051602081039080840390855afa158015612038573d6000803e3d6000fd5b5050604051601f1901519150506001600160a01b0381166120645750600092506001915082905061206e565b9250600091508190505b9450945094915050565b600082600381111561208c5761208c612aec565b03612095575050565b60018260038111156120a9576120a9612aec565b036120c75760405163f645eedf60e01b815260040160405180910390fd5b60028260038111156120db576120db612aec565b036120fc5760405163fce698f760e01b81526004810182905260240161094a565b600382600381111561211057612110612aec565b03610ada576040516335e2f38360e21b81526004810182905260240161094a565b7ff0c57e16840df040f15088dc2f81fe391c3923bec73e23a9662efc9c229c6a0054600160401b900460ff166118fe57604051631afcd79f60e31b815260040160405180910390fd5b612182612131565b600080516020612c2f8339815191527fa16a46d94261c7517cc8ff89f61c0ce93598e3c849801011dee649a6a557d1026121bc8482612b52565b50600381016121cb8382612b52565b5060008082556001909101555050565b606061083983836000612395565b806001600160a01b03163b60000361221f57604051634c9c8ce360e01b81526001600160a01b038216600482015260240161094a565b600080516020612c4f83398151915280546001600160a01b0319166001600160a01b0392909216919091179055565b6060600080846001600160a01b03168460405161226b9190612c12565b600060405180830381855af49150503d80600081146122a6576040519150601f19603f3d011682016040523d82523d6000602084013e6122ab565b606091505b50915091506122bb858383612432565b95945050505050565b34156118fe5760405163b398979f60e01b815260040160405180910390fd5b6000806000846001600160a01b0316846040516123009190612c12565b6000604051808303816000865af19150503d806000811461233d576040519150601f19603f3d011682016040523d82523d6000602084013e612342565b606091505b509150915081801561236c57508051158061236c57508080602001905181019061236c9190612aca565b80156122bb5750505050506001600160a01b03163b151590565b600061239061248e565b905090565b6060814710156123ba5760405163cd78605960e01b815230600482015260240161094a565b600080856001600160a01b031684866040516123d69190612c12565b60006040518083038185875af1925050503d8060008114612413576040519150601f19603f3d011682016040523d82523d6000602084013e612418565b606091505b5091509150612428868383612432565b9695505050505050565b6060826124475761244282612502565b610839565b815115801561245e57506001600160a01b0384163b155b1561248757604051639996b31560e01b81526001600160a01b038516600482015260240161094a565b5080610839565b60007f8b73c3c69bb8fe3d512ecc4cf759cc79239f7b179b0ffacaa9a75d522b39400f6124b961252b565b6124c1612595565b60408051602081019490945283019190915260608201524660808201523060a082015260c00160405160208183030381529060405280519060200120905090565b8051156125125780518082602001fd5b604051630a12f52160e11b815260040160405180910390fd5b6000600080516020612c2f83398151915281612545611be8565b80519091501561255d57805160209091012092915050565b8154801561256c579392505050565b7fc5d2460186f7233c927e7db2dcc703c0e500b653ca82273b7bfad8045d85a470935050505090565b6000600080516020612c2f833981519152816125af611cab565b8051909150156125c757805160209091012092915050565b6001820154801561256c579392505050565b6000602082840312156125eb57600080fd5b81356001600160e01b03198116811461083957600080fd5b6000806040838503121561261657600080fd5b50508035926020909101359150565b60006020828403121561263757600080fd5b5035919050565b6001600160a01b03811681146108cf57600080fd5b6000806040838503121561266657600080fd5b8235915060208301356126788161263e565b809150509250929050565b60006020828403121561269557600080fd5b81356108398161263e565b634e487b7160e01b600052604160045260246000fd5b600080604083850312156126c957600080fd5b82356126d48161263e565b9150602083013567ffffffffffffffff808211156126f157600080fd5b818501915085601f83011261270557600080fd5b813581811115612717576127176126a0565b604051601f8201601f19908116603f0116810190838211818310171561273f5761273f6126a0565b8160405282815288602084870101111561275857600080fd5b8260208601602083013760006020848301015280955050505050509250929050565b803560ff81168114610c9057600080fd5b600080600080608085870312156127a157600080fd5b843593506127b16020860161277a565b93969395505050506040820135916060013590565b60005b838110156127e15781810151838201526020016127c9565b50506000910152565b600081518084526128028160208601602086016127c6565b601f01601f19169290920160200192915050565b60ff60f81b881681526000602060e0602084015261283760e084018a6127ea565b8381036040850152612849818a6127ea565b606085018990526001600160a01b038816608086015260a0850187905284810360c08601528551808252602080880193509091019060005b8181101561289d57835183529284019291840191600101612881565b50909c9b505050505050505050505050565b600080600080600060a086880312156128c757600080fd5b85356128d28161263e565b9450602086013593506128e76040870161277a565b94979396509394606081013594506080013592915050565b60208152600061083960208301846127ea565b6000806040838503121561292557600080fd5b82356129308161263e565b915060208301356126788161263e565b6000806000806080858703121561295657600080fd5b84356129618161263e565b935060208501356129718161263e565b925060408501356129818161263e565b915060608501356129918161263e565b939692955090935050565b634e487b7160e01b600052601160045260246000fd5b808202811582820484141761081a5761081a61299c565b6000826129e657634e487b7160e01b600052601260045260246000fd5b500490565b6020808252600f908201526e139bdd081dda1a5d195b1a5cdd1959608a1b604082015260600190565b8181038181111561081a5761081a61299c565b600060208284031215612a3957600080fd5b5051919050565b8082018082111561081a5761081a61299c565b600060018201612a6557612a6561299c565b5060010190565b60008060408385031215612a7f57600080fd5b505080516020909101519092909150565b600181811c90821680612aa457607f821691505b602082108103612ac457634e487b7160e01b600052602260045260246000fd5b50919050565b600060208284031215612adc57600080fd5b8151801515811461083957600080fd5b634e487b7160e01b600052602160045260246000fd5b601f8211156108b7576000816000526020600020601f850160051c81016020861015612b2b5750805b601f850160051c820191505b81811015612b4a57828155600101612b37565b505050505050565b815167ffffffffffffffff811115612b6c57612b6c6126a0565b612b8081612b7a8454612a90565b84612b02565b602080601f831160018114612bb55760008415612b9d5750858301515b600019600386901b1c1916600185901b178555612b4a565b600085815260208120601f198616915b82811015612be457888601518255948401946001909101908401612bc5565b5085821015612c025787850151600019600388901b60f8161c191681555b5050505050600190811b01905550565b60008251612c248184602087016127c6565b919091019291505056fea16a46d94261c7517cc8ff89f61c0ce93598e3c849801011dee649a6a557d100360894a13ba1a3210667c828492db98dca3e2076cc3735a920a3ca505d382bbc97667070c54ef182b0f5858b034beac1b6f3089aa2d3188bb1e8929f4fa9b92902dd7bc7dec4dceedda775e58dd541e08a116c6c53815c0bd028192f7b626800cd5ed15c6e187e77e9aee88184c21f4f2182ab5827cb3b7e07fbedcd63f03300a2646970667358221220f109590502e1cbbefa303fbdd42d92cdd0292aca785839b4879afd5f00bf5dcb64736f6c63430008180033",
  "linkReferences": {},
  "deployedLinkReferences": {}
}